{
  "address": "0x9a63964DeC87232b28670cfd8D5a788C6c988d28",
  "abi": [
    {
      "inputs": [
        {
          "internalType": "string",
          "name": "_name",
          "type": "string"
        },
        {
          "internalType": "string",
          "name": "_symbol",
          "type": "string"
        }
      ],
      "stateMutability": "nonpayable",
      "type": "constructor"
    },
    {
      "inputs": [],
      "name": "DirectMintFromContractNotAllowed",
      "type": "error"
    },
    {
      "inputs": [],
      "name": "ExceedsAllocatedForFounders",
      "type": "error"
    },
    {
      "inputs": [],
      "name": "ExceedsAllocatedForFreeSale",
      "type": "error"
    },
    {
      "inputs": [],
      "name": "ExceedsAllocatedForPreSale",
      "type": "error"
    },
    {
      "inputs": [],
      "name": "ExceedsCashierMaxSupply",
      "type": "error"
    },
    {
      "inputs": [],
      "name": "ExceedsFreeMaxSupply",
      "type": "error"
    },
    {
      "inputs": [],
      "name": "ExceedsPreSaleSupply",
      "type": "error"
    },
    {
      "inputs": [],
      "name": "ExceedsVipServiceMaxSupply",
      "type": "error"
    },
    {
      "inputs": [],
      "name": "InsufficientETHSent",
      "type": "error"
    },
    {
      "inputs": [],
      "name": "NotOnWhitelist",
      "type": "error"
    },
    {
      "inputs": [],
      "name": "PublicSaleInactive",
      "type": "error"
    },
    {
      "inputs": [],
      "name": "SaleInactive",
      "type": "error"
    },
    {
      "inputs": [],
      "name": "WithdrawalFailed",
      "type": "error"
    },
    {
      "anonymous": false,
      "inputs": [
        {
          "indexed": true,
          "internalType": "address",
          "name": "owner",
          "type": "address"
        },
        {
          "indexed": true,
          "internalType": "address",
          "name": "approved",
          "type": "address"
        },
        {
          "indexed": true,
          "internalType": "uint256",
          "name": "tokenId",
          "type": "uint256"
        }
      ],
      "name": "Approval",
      "type": "event"
    },
    {
      "anonymous": false,
      "inputs": [
        {
          "indexed": true,
          "internalType": "address",
          "name": "owner",
          "type": "address"
        },
        {
          "indexed": true,
          "internalType": "address",
          "name": "operator",
          "type": "address"
        },
        {
          "indexed": false,
          "internalType": "bool",
          "name": "approved",
          "type": "bool"
        }
      ],
      "name": "ApprovalForAll",
      "type": "event"
    },
    {
      "anonymous": false,
      "inputs": [
        {
          "indexed": false,
          "internalType": "uint256",
          "name": "remainingSupply",
          "type": "uint256"
        }
      ],
      "name": "Minted",
      "type": "event"
    },
    {
      "anonymous": false,
      "inputs": [
        {
          "indexed": true,
          "internalType": "address",
          "name": "previousOwner",
          "type": "address"
        },
        {
          "indexed": true,
          "internalType": "address",
          "name": "newOwner",
          "type": "address"
        }
      ],
      "name": "OwnershipTransferred",
      "type": "event"
    },
    {
      "anonymous": false,
      "inputs": [
        {
          "indexed": true,
          "internalType": "address",
          "name": "from",
          "type": "address"
        },
        {
          "indexed": true,
          "internalType": "address",
          "name": "to",
          "type": "address"
        },
        {
          "indexed": true,
          "internalType": "uint256",
          "name": "tokenId",
          "type": "uint256"
        }
      ],
      "name": "Transfer",
      "type": "event"
    },
    {
      "inputs": [],
      "name": "CASHIER_SALE_MINT_LIMIT",
      "outputs": [
        {
          "internalType": "uint256",
          "name": "",
          "type": "uint256"
        }
      ],
      "stateMutability": "view",
      "type": "function"
    },
    {
      "inputs": [],
      "name": "CASHIER_SALE_SUPPLY",
      "outputs": [
        {
          "internalType": "uint256",
          "name": "",
          "type": "uint256"
        }
      ],
      "stateMutability": "view",
      "type": "function"
    },
    {
      "inputs": [],
      "name": "FOUNDERS_SUPPLY",
      "outputs": [
        {
          "internalType": "uint256",
          "name": "",
          "type": "uint256"
        }
      ],
      "stateMutability": "view",
      "type": "function"
    },
    {
      "inputs": [],
      "name": "FREE_SALE_MINT_LIMIT",
      "outputs": [
        {
          "internalType": "uint256",
          "name": "",
          "type": "uint256"
        }
      ],
      "stateMutability": "view",
      "type": "function"
    },
    {
      "inputs": [],
      "name": "FREE_SALE_SUPPLY",
      "outputs": [
        {
          "internalType": "uint256",
          "name": "",
          "type": "uint256"
        }
      ],
      "stateMutability": "view",
      "type": "function"
    },
    {
      "inputs": [],
      "name": "MAX_SUPPLY",
      "outputs": [
        {
          "internalType": "uint256",
          "name": "",
          "type": "uint256"
        }
      ],
      "stateMutability": "view",
      "type": "function"
    },
    {
      "inputs": [],
      "name": "PRE_SALE_SUPPLY",
      "outputs": [
        {
          "internalType": "uint256",
          "name": "",
          "type": "uint256"
        }
      ],
      "stateMutability": "view",
      "type": "function"
    },
    {
      "inputs": [],
      "name": "VIP_SERVICE_SALE_SUPPLY",
      "outputs": [
        {
          "internalType": "uint256",
          "name": "",
          "type": "uint256"
        }
      ],
      "stateMutability": "view",
      "type": "function"
    },
    {
      "inputs": [
        {
          "internalType": "address",
          "name": "to",
          "type": "address"
        },
        {
          "internalType": "uint256",
          "name": "tokenId",
          "type": "uint256"
        }
      ],
      "name": "approve",
      "outputs": [],
      "stateMutability": "nonpayable",
      "type": "function"
    },
    {
      "inputs": [
        {
          "internalType": "address",
          "name": "owner",
          "type": "address"
        }
      ],
      "name": "balanceOf",
      "outputs": [
        {
          "internalType": "uint256",
          "name": "",
          "type": "uint256"
        }
      ],
      "stateMutability": "view",
      "type": "function"
    },
    {
      "inputs": [],
      "name": "baseURI",
      "outputs": [
        {
          "internalType": "string",
          "name": "",
          "type": "string"
        }
      ],
      "stateMutability": "view",
      "type": "function"
    },
    {
      "inputs": [],
      "name": "baseUriSuffix",
      "outputs": [
        {
          "internalType": "string",
          "name": "",
          "type": "string"
        }
      ],
      "stateMutability": "view",
      "type": "function"
    },
    {
      "inputs": [],
      "name": "cashierSaleAmountMinted",
      "outputs": [
        {
          "internalType": "uint256",
          "name": "",
          "type": "uint256"
        }
      ],
      "stateMutability": "view",
      "type": "function"
    },
    {
      "inputs": [
        {
          "internalType": "uint256",
          "name": "mintQuantity",
          "type": "uint256"
        }
      ],
      "name": "cashierSaleBuy",
      "outputs": [],
      "stateMutability": "payable",
      "type": "function"
    },
    {
      "inputs": [
        {
          "internalType": "address",
          "name": "",
          "type": "address"
        }
      ],
      "name": "cashierSaleClaimed",
      "outputs": [
        {
          "internalType": "uint256",
          "name": "",
          "type": "uint256"
        }
      ],
      "stateMutability": "view",
      "type": "function"
    },
    {
      "inputs": [],
      "name": "cashierSaleEndTime",
      "outputs": [
        {
          "internalType": "uint256",
          "name": "",
          "type": "uint256"
        }
      ],
      "stateMutability": "view",
      "type": "function"
    },
    {
      "inputs": [],
      "name": "cashierSaleStartPrice",
      "outputs": [
        {
          "internalType": "uint256",
          "name": "",
          "type": "uint256"
        }
      ],
      "stateMutability": "view",
      "type": "function"
    },
    {
      "inputs": [],
      "name": "cashierSaleStartTime",
      "outputs": [
        {
          "internalType": "uint256",
          "name": "",
          "type": "uint256"
        }
      ],
      "stateMutability": "view",
      "type": "function"
    },
    {
      "inputs": [],
      "name": "foundersAmountMinted",
      "outputs": [
        {
          "internalType": "uint256",
          "name": "",
          "type": "uint256"
        }
      ],
      "stateMutability": "view",
      "type": "function"
    },
    {
      "inputs": [
        {
          "internalType": "uint256",
          "name": "mintQuantity",
          "type": "uint256"
        }
      ],
      "name": "foundersMint",
      "outputs": [],
      "stateMutability": "nonpayable",
      "type": "function"
    },
    {
      "inputs": [
        {
          "internalType": "address[]",
          "name": "addressArr",
          "type": "address[]"
        }
      ],
      "name": "foundersMintOneTo",
      "outputs": [],
      "stateMutability": "nonpayable",
      "type": "function"
    },
    {
      "inputs": [],
      "name": "freeSaleAmountMinted",
      "outputs": [
        {
          "internalType": "uint256",
          "name": "",
          "type": "uint256"
        }
      ],
      "stateMutability": "view",
      "type": "function"
    },
    {
      "inputs": [],
      "name": "freeSaleBuy",
      "outputs": [],
      "stateMutability": "nonpayable",
      "type": "function"
    },
    {
      "inputs": [
        {
          "internalType": "address",
          "name": "",
          "type": "address"
        }
      ],
      "name": "freeSaleClaimed",
      "outputs": [
        {
          "internalType": "uint256",
          "name": "",
          "type": "uint256"
        }
      ],
      "stateMutability": "view",
      "type": "function"
    },
    {
      "inputs": [],
      "name": "freeSaleEndTime",
      "outputs": [
        {
          "internalType": "uint256",
          "name": "",
          "type": "uint256"
        }
      ],
      "stateMutability": "view",
      "type": "function"
    },
    {
      "inputs": [],
      "name": "freeSaleStartTime",
      "outputs": [
        {
          "internalType": "uint256",
          "name": "",
          "type": "uint256"
        }
      ],
      "stateMutability": "view",
      "type": "function"
    },
    {
      "inputs": [
        {
          "internalType": "uint256",
          "name": "tokenId",
          "type": "uint256"
        }
      ],
      "name": "getApproved",
      "outputs": [
        {
          "internalType": "address",
          "name": "",
          "type": "address"
        }
      ],
      "stateMutability": "view",
      "type": "function"
    },
    {
      "inputs": [],
      "name": "getRemainingSupply",
      "outputs": [
        {
          "internalType": "uint256",
          "name": "",
          "type": "uint256"
        }
      ],
      "stateMutability": "view",
      "type": "function"
    },
    {
      "inputs": [
        {
          "internalType": "address",
          "name": "owner",
          "type": "address"
        },
        {
          "internalType": "address",
          "name": "operator",
          "type": "address"
        }
      ],
      "name": "isApprovedForAll",
      "outputs": [
        {
          "internalType": "bool",
          "name": "",
          "type": "bool"
        }
      ],
      "stateMutability": "view",
      "type": "function"
    },
    {
      "inputs": [],
      "name": "isWithinTimeOfCashier",
      "outputs": [
        {
          "internalType": "bool",
          "name": "",
          "type": "bool"
        }
      ],
      "stateMutability": "view",
      "type": "function"
    },
    {
      "inputs": [],
      "name": "isWithinTimeOfFree",
      "outputs": [
        {
          "internalType": "bool",
          "name": "",
          "type": "bool"
        }
      ],
      "stateMutability": "view",
      "type": "function"
    },
    {
      "inputs": [],
      "name": "isWithinTimeOfVipService",
      "outputs": [
        {
          "internalType": "bool",
          "name": "",
          "type": "bool"
        }
      ],
      "stateMutability": "view",
      "type": "function"
    },
    {
      "inputs": [],
      "name": "isWithinTimeOfWl",
      "outputs": [
        {
          "internalType": "bool",
          "name": "",
          "type": "bool"
        }
      ],
      "stateMutability": "view",
      "type": "function"
    },
    {
      "inputs": [],
      "name": "name",
      "outputs": [
        {
          "internalType": "string",
          "name": "",
          "type": "string"
        }
      ],
      "stateMutability": "view",
      "type": "function"
    },
    {
      "inputs": [],
      "name": "owner",
      "outputs": [
        {
          "internalType": "address",
          "name": "",
          "type": "address"
        }
      ],
      "stateMutability": "view",
      "type": "function"
    },
    {
      "inputs": [
        {
          "internalType": "uint256",
          "name": "tokenId",
          "type": "uint256"
        }
      ],
      "name": "ownerOf",
      "outputs": [
        {
          "internalType": "address",
          "name": "",
          "type": "address"
        }
      ],
      "stateMutability": "view",
      "type": "function"
    },
    {
      "inputs": [],
      "name": "preSaleAmountMinted",
      "outputs": [
        {
          "internalType": "uint256",
          "name": "",
          "type": "uint256"
        }
      ],
      "stateMutability": "view",
      "type": "function"
    },
    {
      "inputs": [],
      "name": "renounceOwnership",
      "outputs": [],
      "stateMutability": "nonpayable",
      "type": "function"
    },
    {
      "inputs": [
        {
          "internalType": "address",
          "name": "from",
          "type": "address"
        },
        {
          "internalType": "address",
          "name": "to",
          "type": "address"
        },
        {
          "internalType": "uint256",
          "name": "tokenId",
          "type": "uint256"
        }
      ],
      "name": "safeTransferFrom",
      "outputs": [],
      "stateMutability": "nonpayable",
      "type": "function"
    },
    {
      "inputs": [
        {
          "internalType": "address",
          "name": "from",
          "type": "address"
        },
        {
          "internalType": "address",
          "name": "to",
          "type": "address"
        },
        {
          "internalType": "uint256",
          "name": "tokenId",
          "type": "uint256"
        },
        {
          "internalType": "bytes",
          "name": "data",
          "type": "bytes"
        }
      ],
      "name": "safeTransferFrom",
      "outputs": [],
      "stateMutability": "nonpayable",
      "type": "function"
    },
    {
      "inputs": [
        {
          "internalType": "address",
          "name": "operator",
          "type": "address"
        },
        {
          "internalType": "bool",
          "name": "approved",
          "type": "bool"
        }
      ],
      "name": "setApprovalForAll",
      "outputs": [],
      "stateMutability": "nonpayable",
      "type": "function"
    },
    {
      "inputs": [
        {
          "internalType": "string",
          "name": "_uri",
          "type": "string"
        }
      ],
      "name": "setBaseURI",
      "outputs": [],
      "stateMutability": "nonpayable",
      "type": "function"
    },
    {
      "inputs": [
        {
          "internalType": "uint256",
          "name": "_startTime",
          "type": "uint256"
        },
        {
          "internalType": "uint256",
          "name": "_endTime",
          "type": "uint256"
        }
      ],
      "name": "setCashierSaleTime",
      "outputs": [],
      "stateMutability": "nonpayable",
      "type": "function"
    },
    {
      "inputs": [
        {
          "internalType": "uint256",
          "name": "_startTime",
          "type": "uint256"
        },
        {
          "internalType": "uint256",
          "name": "_endTime",
          "type": "uint256"
        }
      ],
      "name": "setFreeSaleTime",
      "outputs": [],
      "stateMutability": "nonpayable",
      "type": "function"
    },
    {
      "inputs": [
        {
          "internalType": "bytes32",
          "name": "_merkleRoot",
          "type": "bytes32"
        }
      ],
      "name": "setMerkleRoot",
      "outputs": [],
      "stateMutability": "nonpayable",
      "type": "function"
    },
    {
      "inputs": [
        {
          "internalType": "uint256",
          "name": "_startTime",
          "type": "uint256"
        }
      ],
      "name": "setVipServiceSaleTime",
      "outputs": [],
      "stateMutability": "nonpayable",
      "type": "function"
    },
    {
      "inputs": [
        {
          "internalType": "uint256",
          "name": "_startTime",
          "type": "uint256"
        },
        {
          "internalType": "uint256",
          "name": "_endTime",
          "type": "uint256"
        }
      ],
      "name": "setWlSaleTime",
      "outputs": [],
      "stateMutability": "nonpayable",
      "type": "function"
    },
    {
      "inputs": [
        {
          "internalType": "bytes4",
          "name": "interfaceId",
          "type": "bytes4"
        }
      ],
      "name": "supportsInterface",
      "outputs": [
        {
          "internalType": "bool",
          "name": "",
          "type": "bool"
        }
      ],
      "stateMutability": "view",
      "type": "function"
    },
    {
      "inputs": [],
      "name": "symbol",
      "outputs": [
        {
          "internalType": "string",
          "name": "",
          "type": "string"
        }
      ],
      "stateMutability": "view",
      "type": "function"
    },
    {
      "inputs": [
        {
          "internalType": "uint256",
          "name": "tokenId",
          "type": "uint256"
        }
      ],
      "name": "tokenURI",
      "outputs": [
        {
          "internalType": "string",
          "name": "",
          "type": "string"
        }
      ],
      "stateMutability": "view",
      "type": "function"
    },
    {
      "inputs": [],
      "name": "totalSupply",
      "outputs": [
        {
          "internalType": "uint256",
          "name": "_value",
          "type": "uint256"
        }
      ],
      "stateMutability": "view",
      "type": "function"
    },
    {
      "inputs": [
        {
          "internalType": "address",
          "name": "from",
          "type": "address"
        },
        {
          "internalType": "address",
          "name": "to",
          "type": "address"
        },
        {
          "internalType": "uint256",
          "name": "tokenId",
          "type": "uint256"
        }
      ],
      "name": "transferFrom",
      "outputs": [],
      "stateMutability": "nonpayable",
      "type": "function"
    },
    {
      "inputs": [
        {
          "internalType": "address",
          "name": "newOwner",
          "type": "address"
        }
      ],
      "name": "transferOwnership",
      "outputs": [],
      "stateMutability": "nonpayable",
      "type": "function"
    },
    {
      "inputs": [],
      "name": "vipServiceSaleAmountMinted",
      "outputs": [
        {
          "internalType": "uint256",
          "name": "",
          "type": "uint256"
        }
      ],
      "stateMutability": "view",
      "type": "function"
    },
    {
      "inputs": [
        {
          "internalType": "uint256",
          "name": "mintQuantity",
          "type": "uint256"
        }
      ],
      "name": "vipServiceSaleBuy",
      "outputs": [],
      "stateMutability": "payable",
      "type": "function"
    },
    {
      "inputs": [],
      "name": "vipServiceSaleStartPrice",
      "outputs": [
        {
          "internalType": "uint256",
          "name": "",
          "type": "uint256"
        }
      ],
      "stateMutability": "view",
      "type": "function"
    },
    {
      "inputs": [],
      "name": "vipServiceSaleStartTime",
      "outputs": [
        {
          "internalType": "uint256",
          "name": "",
          "type": "uint256"
        }
      ],
      "stateMutability": "view",
      "type": "function"
    },
    {
      "inputs": [
        {
          "internalType": "address",
          "name": "",
          "type": "address"
        }
      ],
      "name": "whitelistClaimed",
      "outputs": [
        {
          "internalType": "uint256",
          "name": "",
          "type": "uint256"
        }
      ],
      "stateMutability": "view",
      "type": "function"
    },
    {
      "inputs": [],
      "name": "withdraw",
      "outputs": [],
      "stateMutability": "nonpayable",
      "type": "function"
    },
    {
      "inputs": [
        {
          "internalType": "bytes32[]",
          "name": "_merkleproof",
          "type": "bytes32[]"
        },
        {
          "internalType": "uint256",
          "name": "allowedMintQuantity",
          "type": "uint256"
        },
        {
          "internalType": "uint256",
          "name": "mintQuantity",
          "type": "uint256"
        }
      ],
      "name": "wlPreSaleBuy",
      "outputs": [],
      "stateMutability": "nonpayable",
      "type": "function"
    },
    {
      "inputs": [],
      "name": "wlSaleEndTime",
      "outputs": [
        {
          "internalType": "uint256",
          "name": "",
          "type": "uint256"
        }
      ],
      "stateMutability": "view",
      "type": "function"
    },
    {
      "inputs": [],
      "name": "wlSaleStartTime",
      "outputs": [
        {
          "internalType": "uint256",
          "name": "",
          "type": "uint256"
        }
      ],
      "stateMutability": "view",
      "type": "function"
    }
  ],
  "transactionHash": "0xbb62a200e57099e5753d7fafc1dc12655f743dcb72f47df0de55e4deeeffc4fb",
  "args": [
    "IMP",
    "IMP"
  ],
  "numDeployments": 1,
  "solcInputHash": "660f92e4f9d56d161e71a0b0b06011ed",
  "bytecode": "0x60c06040526005608081905264173539b7b760d91b60a09081526200002891600991906200011f565b5066b1a2bc2ec50000601955670de0b6b3a7640000601c553480156200004d57600080fd5b5060405162002ca138038062002ca1833981016040819052620000709162000278565b815182908290620000899060009060208501906200011f565b5080516200009f9060019060208401906200011f565b505050620000bc620000b6620000c960201b60201c565b620000cd565b5050600160075562000332565b3390565b600680546001600160a01b038381166001600160a01b0319831681179093556040519116919082907f8be0079c531659141344cd1fd0a4f28419497f9722a3daafe3b4186f6b6457e090600090a35050565b8280546200012d90620002df565b90600052602060002090601f0160209004810192826200015157600085556200019c565b82601f106200016c57805160ff19168380011785556200019c565b828001600101855582156200019c579182015b828111156200019c5782518255916020019190600101906200017f565b50620001aa929150620001ae565b5090565b5b80821115620001aa5760008155600101620001af565b600082601f830112620001d6578081fd5b81516001600160401b0380821115620001f357620001f36200031c565b604051601f8301601f19908116603f011681019082821181831017156200021e576200021e6200031c565b816040528381526020925086838588010111156200023a578485fd5b8491505b838210156200025d57858201830151818301840152908201906200023e565b838211156200026e57848385830101525b9695505050505050565b600080604083850312156200028b578182fd5b82516001600160401b0380821115620002a2578384fd5b620002b086838701620001c5565b93506020850151915080821115620002c6578283fd5b50620002d585828601620001c5565b9150509250929050565b600181811c90821680620002f457607f821691505b602082108114156200031657634e487b7160e01b600052602260045260246000fd5b50919050565b634e487b7160e01b600052604160045260246000fd5b61295f80620003426000396000f3fe6080604052600436106103ad5760003560e01c806370a08231116101e7578063c87b56dd1161010d578063e4b7fb73116100a0578063f2fde38b1161006f578063f2fde38b14610a24578063f62e926014610a44578063fafe1aa814610a5a578063fd2449fb14610a6f57600080fd5b8063e4b7fb7314610991578063e73735d0146109a6578063e985e9c5146109c6578063eb0c3c8d14610a0f57600080fd5b8063db4bec44116100dc578063db4bec4414610923578063dbee0b2f14610950578063dece9b2714610966578063e09b0f1e1461097b57600080fd5b8063c87b56dd146108aa578063c885e1a8146108ca578063cd769df2146108e0578063d0864c96146108f657600080fd5b806395602a12116101855780639b2b6a41116101545780639b2b6a411461081d578063a22cb4651461084a578063b88d4fde1461086a578063bbd89a941461088a57600080fd5b806395602a12146107c757806395d89b41146107dc578063974bcaab146107f157806398ca667f1461080757600080fd5b8063863eb020116101c1578063863eb0201461076b578063879f1b82146107805780638da5cb5b146107935780638e0c09b2146107b157600080fd5b806370a0823114610716578063715018a6146107365780637cb647591461074b57600080fd5b8063424d16da116102d757806353867b4c1161026a578063629403f511610239578063629403f5146106b55780636352211e146106cb5780636c0360eb146106eb578063702377181461070057600080fd5b806353867b4c14610655578063540075b41461066a578063553747b11461068057806355f804b31461069557600080fd5b806344ee0aa8116102a657806344ee0aa8146105f457806345ea45e1146106095780634619fd101461061f578063491a39fa1461063f57600080fd5b8063424d16da1461058b57806342842e0e146105a157806342e07194146105c157806344de95b0146105e157600080fd5b8063198c6f121161034f578063309bd4c31161031e578063309bd4c31461052a57806332cb6b0c1461054057806332f324c5146105565780633ccfd60b1461057657600080fd5b8063198c6f12146104be57806323b872dd146104de5780632567cb84146104fe5780632e66d2bb1461051457600080fd5b8063070351291161038b578063070351291461042d578063081812fc1461044f578063095ea7b31461048757806318160ddd146104a757600080fd5b806301ffc9a7146103b2578063021fa000146103e757806306fdde031461040b575b600080fd5b3480156103be57600080fd5b506103d26103cd3660046124bf565b610a84565b60405190151581526020015b60405180910390f35b3480156103f357600080fd5b506103fd60135481565b6040519081526020016103de565b34801561041757600080fd5b50610420610ad6565b6040516103de919061269e565b34801561043957600080fd5b5061044d6104483660046123ef565b610b68565b005b34801561045b57600080fd5b5061046f61046a3660046124a7565b610d36565b6040516001600160a01b0390911681526020016103de565b34801561049357600080fd5b5061044d6104a2366004612356565b610d5d565b3480156104b357600080fd5b50600a546103fd9081565b3480156104ca57600080fd5b5061044d6104d9366004612552565b610e73565b3480156104ea57600080fd5b5061044d6104f9366004612229565b610e86565b34801561050a57600080fd5b506103fd60115481565b34801561052057600080fd5b506103fd610bb881565b34801561053657600080fd5b506103fd601c5481565b34801561054c57600080fd5b506103fd61271081565b34801561056257600080fd5b5061044d6105713660046124a7565b610eb7565b34801561058257600080fd5b5061044d610ec4565b34801561059757600080fd5b506103fd60155481565b3480156105ad57600080fd5b5061044d6105bc366004612229565b610f65565b3480156105cd57600080fd5b5061044d6105dc366004612552565b610f80565b61044d6105ef3660046124a7565b610f93565b34801561060057600080fd5b506103d2611114565b34801561061557600080fd5b506103fd600c5481565b34801561062b57600080fd5b5061044d61063a3660046124a7565b61112e565b34801561064b57600080fd5b506103fd601a5481565b34801561066157600080fd5b506103fd600181565b34801561067657600080fd5b506103fd600b5481565b34801561068c57600080fd5b506103fd606481565b3480156106a157600080fd5b5061044d6106b03660046124f7565b6111dd565b3480156106c157600080fd5b506103fd600d5481565b3480156106d757600080fd5b5061046f6106e63660046124a7565b6111f1565b3480156106f757600080fd5b50610420611251565b34801561070c57600080fd5b506103fd60105481565b34801561072257600080fd5b506103fd6107313660046121dd565b6112df565b34801561074257600080fd5b5061044d611365565b34801561075757600080fd5b5061044d6107663660046124a7565b611379565b34801561077757600080fd5b506103d2611386565b61044d61078e3660046124a7565b61139e565b34801561079f57600080fd5b506006546001600160a01b031661046f565b3480156107bd57600080fd5b506103fd6103e881565b3480156107d357600080fd5b506103fd600281565b3480156107e857600080fd5b5061042061149e565b3480156107fd57600080fd5b506103fd601b5481565b34801561081357600080fd5b506103fd61038481565b34801561082957600080fd5b506103fd6108383660046121dd565b60146020526000908152604090205481565b34801561085657600080fd5b5061044d61086536600461231c565b6114ad565b34801561087657600080fd5b5061044d610885366004612264565b6114bc565b34801561089657600080fd5b5061044d6108a536600461237f565b6114f4565b3480156108b657600080fd5b506104206108c53660046124a7565b6115f0565b3480156108d657600080fd5b506103fd60125481565b3480156108ec57600080fd5b506103fd61138881565b34801561090257600080fd5b506103fd6109113660046121dd565b60186020526000908152604090205481565b34801561092f57600080fd5b506103fd61093e3660046121dd565b600e6020526000908152604090205481565b34801561095c57600080fd5b506103fd60195481565b34801561097257600080fd5b5061044d61165a565b34801561098757600080fd5b506103fd60175481565b34801561099d57600080fd5b506103fd6117a0565b3480156109b257600080fd5b5061044d6109c1366004612552565b6117b4565b3480156109d257600080fd5b506103d26109e13660046121f7565b6001600160a01b03918216600090815260056020908152604080832093909416825291909152205460ff1690565b348015610a1b57600080fd5b506103d26117c7565b348015610a3057600080fd5b5061044d610a3f3660046121dd565b6117df565b348015610a5057600080fd5b506103fd60165481565b348015610a6657600080fd5b50610420611858565b348015610a7b57600080fd5b506103d2611865565b60006001600160e01b031982166380ac58cd60e01b1480610ab557506001600160e01b03198216635b5e139f60e01b145b80610ad057506301ffc9a760e01b6001600160e01b03198316145b92915050565b606060008054610ae590612847565b80601f0160208091040260200160405190810160405280929190818152602001828054610b1190612847565b8015610b5e5780601f10610b3357610100808354040283529160200191610b5e565b820191906000526020600020905b815481529060010190602001808311610b4157829003601f168201915b5050505050905090565b60026007541415610b945760405162461bcd60e51b8152600401610b8b90612751565b60405180910390fd5b6002600755323314610bb957604051633458477760e01b815260040160405180910390fd5b610bc16117c7565b610bde57604051630fe219dd60e21b815260040160405180910390fd5b6103e881601054610bef91906127b9565b1115610c0e57604051637e53eae760e11b815260040160405180910390fd5b336000908152600e60205260409020548290610c2b9083906127b9565b1115610c4a57604051631289a7bb60e11b815260040160405180910390fd5b6040516bffffffffffffffffffffffff193360601b16602082015260348101839052600090605401604051602081830303815290604052805190602001209050610c9784600f548361187d565b610cb45760405163522fc3bd60e01b815260040160405180910390fd5b6010805483019055336000908152600e602052604081208054840190555b82811015610d0257610ce8600a80546001019055565b610cfa33610cf5600a5490565b611893565b600101610cd2565b5060008051602061290a833981519152610d1a6117a0565b60405190815260200160405180910390a1505060016007555050565b6000610d41826119d5565b506000908152600460205260409020546001600160a01b031690565b6000610d68826111f1565b9050806001600160a01b0316836001600160a01b03161415610dd65760405162461bcd60e51b815260206004820152602160248201527f4552433732313a20617070726f76616c20746f2063757272656e74206f776e656044820152603960f91b6064820152608401610b8b565b336001600160a01b0382161480610df25750610df281336109e1565b610e645760405162461bcd60e51b815260206004820152603e60248201527f4552433732313a20617070726f76652063616c6c6572206973206e6f7420746f60448201527f6b656e206f776e6572206e6f7220617070726f76656420666f7220616c6c00006064820152608401610b8b565b610e6e8383611a34565b505050565b610e7b611aa2565b601591909155601655565b610e903382611afc565b610eac5760405162461bcd60e51b8152600401610b8b90612703565b610e6e838383611b7b565b610ebf611aa2565b601a55565b610ecc611aa2565b60026007541415610eef5760405162461bcd60e51b8152600401610b8b90612751565b6002600755604051600090339047908381818185875af1925050503d8060008114610f36576040519150601f19603f3d011682016040523d82523d6000602084013e610f3b565b606091505b5050905080610f5d576040516327fcd9d160e01b815260040160405180910390fd5b506001600755565b610e6e838383604051806020016040528060008152506114bc565b610f88611aa2565b601191909155601255565b60026007541415610fb65760405162461bcd60e51b8152600401610b8b90612751565b6002600755323314610fdb57604051633458477760e01b815260040160405180910390fd5b610fe3611865565b61100057604051630fe219dd60e21b815260040160405180910390fd5b60028160175461101091906127b9565b111561102f57604051631001fccd60e01b815260040160405180910390fd5b3360009081526018602052604090205460029061104d9083906127b9565b111561106c5760405163e222758f60e01b815260040160405180910390fd5b8060195461107a91906127e5565b34101561109a5760405163311c9fd160e01b815260040160405180910390fd5b60178054820190553360009081526018602052604081208054830190555b818110156110e3576110ce600a80546001019055565b6110db33610cf5600a5490565b6001016110b8565b5060008051602061290a8339815191526110fb6117a0565b60405190815260200160405180910390a1506001600755565b600080601a541180156111295750601a544210155b905090565b611136611aa2565b600260075414156111595760405162461bcd60e51b8152600401610b8b90612751565b6002600755600b54610384906111709083906127b9565b111561118f57604051632a3b0a3360e11b815260040160405180910390fd5b60005b818110156111bd576111a8600a80546001019055565b6111b533610cf5600a5490565b600101611192565b50600b80548201905560008051602061290a8339815191526110fb6117a0565b6111e5611aa2565b610e6e60088383612128565b6000818152600260205260408120546001600160a01b031680610ad05760405162461bcd60e51b8152602060048201526018602482015277115490cdcc8c4e881a5b9d985b1a59081d1bdad95b88125160421b6044820152606401610b8b565b6008805461125e90612847565b80601f016020809104026020016040519081016040528092919081815260200182805461128a90612847565b80156112d75780601f106112ac576101008083540402835291602001916112d7565b820191906000526020600020905b8154815290600101906020018083116112ba57829003601f168201915b505050505081565b60006001600160a01b0382166113495760405162461bcd60e51b815260206004820152602960248201527f4552433732313a2061646472657373207a65726f206973206e6f7420612076616044820152683634b21037bbb732b960b91b6064820152608401610b8b565b506001600160a01b031660009081526003602052604090205490565b61136d611aa2565b6113776000611d17565b565b611381611aa2565b600f55565b60006012544210801561112957505060115442101590565b600260075414156113c15760405162461bcd60e51b8152600401610b8b90612751565b60026007553233146113e657604051633458477760e01b815260040160405180910390fd5b6113ee611114565b61140b57604051630fe219dd60e21b815260040160405180910390fd5b606481601b5461141b91906127b9565b111561143a57604051636061bfff60e11b815260040160405180910390fd5b80601c5461144891906127e5565b3410156114685760405163311c9fd160e01b815260040160405180910390fd5b601b80548201905560005b818110156110e357611489600a80546001019055565b61149633610cf5600a5490565b600101611473565b606060018054610ae590612847565b6114b8338383611d69565b5050565b6114c63383611afc565b6114e25760405162461bcd60e51b8152600401610b8b90612703565b6114ee84848484611e38565b50505050565b6114fc611aa2565b6002600754141561151f5760405162461bcd60e51b8152600401610b8b90612751565b6002600755600b54610384906115369083906127b9565b111561155557604051632a3b0a3360e11b815260040160405180910390fd5b60005b818110156115b65761156e600a80546001019055565b6115ae83838381811061159157634e487b7160e01b600052603260045260246000fd5b90506020020160208101906115a691906121dd565b600a54611893565b600101611558565b50600b80548201905560008051602061290a8339815191526115d66117a0565b60405190815260200160405180910390a150506001600755565b60606115fb826119d5565b6000611605611e6b565b905060008151116116255760405180602001604052806000815250611653565b8061162f84611e7a565b60096040516020016116439392919061259f565b6040516020818303038152906040525b9392505050565b6002600754141561167d5760405162461bcd60e51b8152600401610b8b90612751565b60026007553233146116a257604051633458477760e01b815260040160405180910390fd5b6116aa611386565b6116c757604051630fe219dd60e21b815260040160405180910390fd5b610bb860135460016116d991906127b9565b11156116f8576040516328a6a5c560e21b815260040160405180910390fd5b3360009081526014602052604090205460019061171590826127b9565b11156117345760405163e222758f60e01b815260040160405180910390fd5b60138054600190810190915533600090815260146020526040902080549091019055611764600a80546001019055565b61177133610cf5600a5490565b60008051602061290a8339815191526117886117a0565b60405190815260200160405180910390a16001600755565b60006117ab600a5490565b61271003905090565b6117bc611aa2565b600c91909155600d55565b6000600d5442108015611129575050600c5442101590565b6117e7611aa2565b6001600160a01b03811661184c5760405162461bcd60e51b815260206004820152602660248201527f4f776e61626c653a206e6577206f776e657220697320746865207a65726f206160448201526564647265737360d01b6064820152608401610b8b565b61185581611d17565b50565b6009805461125e90612847565b60006016544210801561112957505060155442101590565b60008261188a8584611f94565b14949350505050565b6001600160a01b0382166118e95760405162461bcd60e51b815260206004820181905260248201527f4552433732313a206d696e7420746f20746865207a65726f20616464726573736044820152606401610b8b565b6000818152600260205260409020546001600160a01b03161561194e5760405162461bcd60e51b815260206004820152601c60248201527f4552433732313a20746f6b656e20616c7265616479206d696e746564000000006044820152606401610b8b565b6001600160a01b03821660009081526003602052604081208054600192906119779084906127b9565b909155505060008181526002602052604080822080546001600160a01b0319166001600160a01b03861690811790915590518392907fddf252ad1be2c89b69c2b068fc378daa952ba7f163c4a11628f55a4df523b3ef908290a45050565b6000818152600260205260409020546001600160a01b03166118555760405162461bcd60e51b8152602060048201526018602482015277115490cdcc8c4e881a5b9d985b1a59081d1bdad95b88125160421b6044820152606401610b8b565b600081815260046020526040902080546001600160a01b0319166001600160a01b0384169081179091558190611a69826111f1565b6001600160a01b03167f8c5be1e5ebec7d5bd14f71427d1e84f3dd0314c0f7b2291e5b200ac8c7c3b92560405160405180910390a45050565b6006546001600160a01b031633146113775760405162461bcd60e51b815260206004820181905260248201527f4f776e61626c653a2063616c6c6572206973206e6f7420746865206f776e65726044820152606401610b8b565b600080611b08836111f1565b9050806001600160a01b0316846001600160a01b03161480611b4f57506001600160a01b0380821660009081526005602090815260408083209388168352929052205460ff165b80611b735750836001600160a01b0316611b6884610d36565b6001600160a01b0316145b949350505050565b826001600160a01b0316611b8e826111f1565b6001600160a01b031614611bf25760405162461bcd60e51b815260206004820152602560248201527f4552433732313a207472616e736665722066726f6d20696e636f72726563742060448201526437bbb732b960d91b6064820152608401610b8b565b6001600160a01b038216611c545760405162461bcd60e51b8152602060048201526024808201527f4552433732313a207472616e7366657220746f20746865207a65726f206164646044820152637265737360e01b6064820152608401610b8b565b611c5f600082611a34565b6001600160a01b0383166000908152600360205260408120805460019290611c88908490612804565b90915550506001600160a01b0382166000908152600360205260408120805460019290611cb69084906127b9565b909155505060008181526002602052604080822080546001600160a01b0319166001600160a01b0386811691821790925591518493918716917fddf252ad1be2c89b69c2b068fc378daa952ba7f163c4a11628f55a4df523b3ef91a4505050565b600680546001600160a01b038381166001600160a01b0319831681179093556040519116919082907f8be0079c531659141344cd1fd0a4f28419497f9722a3daafe3b4186f6b6457e090600090a35050565b816001600160a01b0316836001600160a01b03161415611dcb5760405162461bcd60e51b815260206004820152601960248201527f4552433732313a20617070726f766520746f2063616c6c6572000000000000006044820152606401610b8b565b6001600160a01b03838116600081815260056020908152604080832094871680845294825291829020805460ff191686151590811790915591519182527f17307eab39ab6107e8899845ad3d59bd9653f200f220920489ca2b5937696c31910160405180910390a3505050565b611e43848484611b7b565b611e4f84848484611fef565b6114ee5760405162461bcd60e51b8152600401610b8b906126b1565b606060088054610ae590612847565b606081611e9e5750506040805180820190915260018152600360fc1b602082015290565b8160005b8115611ec85780611eb281612882565b9150611ec19050600a836127d1565b9150611ea2565b60008167ffffffffffffffff811115611ef157634e487b7160e01b600052604160045260246000fd5b6040519080825280601f01601f191660200182016040528015611f1b576020820181803683370190505b5090505b8415611b7357611f30600183612804565b9150611f3d600a8661289d565b611f489060306127b9565b60f81b818381518110611f6b57634e487b7160e01b600052603260045260246000fd5b60200101906001600160f81b031916908160001a905350611f8d600a866127d1565b9450611f1f565b600081815b8451811015611fe757611fd382868381518110611fc657634e487b7160e01b600052603260045260246000fd5b60200260200101516120fc565b915080611fdf81612882565b915050611f99565b509392505050565b60006001600160a01b0384163b156120f157604051630a85bd0160e11b81526001600160a01b0385169063150b7a0290612033903390899088908890600401612661565b602060405180830381600087803b15801561204d57600080fd5b505af192505050801561207d575060408051601f3d908101601f1916820190925261207a918101906124db565b60015b6120d7573d8080156120ab576040519150601f19603f3d011682016040523d82523d6000602084013e6120b0565b606091505b5080516120cf5760405162461bcd60e51b8152600401610b8b906126b1565b805181602001fd5b6001600160e01b031916630a85bd0160e11b149050611b73565b506001949350505050565b6000818310612118576000828152602084905260409020611653565b5060009182526020526040902090565b82805461213490612847565b90600052602060002090601f016020900481019282612156576000855561219c565b82601f1061216f5782800160ff1982351617855561219c565b8280016001018555821561219c579182015b8281111561219c578235825591602001919060010190612181565b506121a89291506121ac565b5090565b5b808211156121a857600081556001016121ad565b80356001600160a01b03811681146121d857600080fd5b919050565b6000602082840312156121ee578081fd5b611653826121c1565b60008060408385031215612209578081fd5b612212836121c1565b9150612220602084016121c1565b90509250929050565b60008060006060848603121561223d578081fd5b612246846121c1565b9250612254602085016121c1565b9150604084013590509250925092565b60008060008060808587031215612279578081fd5b612282856121c1565b935060206122918187016121c1565b935060408601359250606086013567ffffffffffffffff808211156122b4578384fd5b818801915088601f8301126122c7578384fd5b8135818111156122d9576122d96128dd565b6122eb601f8201601f19168501612788565b91508082528984828501011115612300578485fd5b8084840185840137810190920192909252939692955090935050565b6000806040838503121561232e578182fd5b612337836121c1565b91506020830135801515811461234b578182fd5b809150509250929050565b60008060408385031215612368578182fd5b612371836121c1565b946020939093013593505050565b60008060208385031215612391578182fd5b823567ffffffffffffffff808211156123a8578384fd5b818501915085601f8301126123bb578384fd5b8135818111156123c9578485fd5b8660208260051b85010111156123dd578485fd5b60209290920196919550909350505050565b600080600060608486031215612403578283fd5b833567ffffffffffffffff8082111561241a578485fd5b818601915086601f83011261242d578485fd5b8135602082821115612441576124416128dd565b8160051b9250612452818401612788565b8281528181019085830185870184018c101561246c57898afd5b8996505b8487101561248e578035835260019690960195918301918301612470565b509a918901359950506040909701359695505050505050565b6000602082840312156124b8578081fd5b5035919050565b6000602082840312156124d0578081fd5b8135611653816128f3565b6000602082840312156124ec578081fd5b8151611653816128f3565b60008060208385031215612509578081fd5b823567ffffffffffffffff80821115612520578283fd5b818501915085601f830112612533578283fd5b813581811115612541578384fd5b8660208285010111156123dd578384fd5b60008060408385031215612564578182fd5b50508035926020909101359150565b6000815180845261258b81602086016020860161281b565b601f01601f19169290920160200192915050565b6000845160206125b28285838a0161281b565b8551918401916125c58184848a0161281b565b85549201918390600181811c90808316806125e157607f831692505b8583108114156125ff57634e487b7160e01b88526022600452602488fd5b808015612613576001811461262457612650565b60ff19851688528388019550612650565b60008b815260209020895b858110156126485781548a82015290840190880161262f565b505083880195505b50939b9a5050505050505050505050565b6001600160a01b038581168252841660208201526040810183905260806060820181905260009061269490830184612573565b9695505050505050565b6020815260006116536020830184612573565b60208082526032908201527f4552433732313a207472616e7366657220746f206e6f6e20455243373231526560408201527131b2b4bb32b91034b6b83632b6b2b73a32b960711b606082015260800190565b6020808252602e908201527f4552433732313a2063616c6c6572206973206e6f7420746f6b656e206f776e6560408201526d1c881b9bdc88185c1c1c9bdd995960921b606082015260800190565b6020808252601f908201527f5265656e7472616e637947756172643a207265656e7472616e742063616c6c00604082015260600190565b604051601f8201601f1916810167ffffffffffffffff811182821017156127b1576127b16128dd565b604052919050565b600082198211156127cc576127cc6128b1565b500190565b6000826127e0576127e06128c7565b500490565b60008160001904831182151516156127ff576127ff6128b1565b500290565b600082821015612816576128166128b1565b500390565b60005b8381101561283657818101518382015260200161281e565b838111156114ee5750506000910152565b600181811c9082168061285b57607f821691505b6020821081141561287c57634e487b7160e01b600052602260045260246000fd5b50919050565b6000600019821415612896576128966128b1565b5060010190565b6000826128ac576128ac6128c7565b500690565b634e487b7160e01b600052601160045260246000fd5b634e487b7160e01b600052601260045260246000fd5b634e487b7160e01b600052604160045260246000fd5b6001600160e01b03198116811461185557600080fdfe176b02bb2d12439ff7a20b59f402cca16c76f50508b13ef3166a600eb719354aa26469706673582212203b5fb30173501e6070d1ef7bff8bc2b94fd7c93b28e8a3bad33d754ff354c0bd64736f6c63430008040033",
  "devdoc": {
    "kind": "dev",
    "methods": {
      "approve(address,uint256)": {
        "details": "See {IERC721-approve}."
      },
      "balanceOf(address)": {
        "details": "See {IERC721-balanceOf}."
      },
      "getApproved(uint256)": {
        "details": "See {IERC721-getApproved}."
      },
      "isApprovedForAll(address,address)": {
        "details": "See {IERC721-isApprovedForAll}."
      },
      "name()": {
        "details": "See {IERC721Metadata-name}."
      },
      "owner()": {
        "details": "Returns the address of the current owner."
      },
      "ownerOf(uint256)": {
        "details": "See {IERC721-ownerOf}."
      },
      "renounceOwnership()": {
        "details": "Leaves the contract without owner. It will not be possible to call `onlyOwner` functions anymore. Can only be called by the current owner. NOTE: Renouncing ownership will leave the contract without an owner, thereby removing any functionality that is only available to the owner."
      },
      "safeTransferFrom(address,address,uint256)": {
        "details": "See {IERC721-safeTransferFrom}."
      },
      "safeTransferFrom(address,address,uint256,bytes)": {
        "details": "See {IERC721-safeTransferFrom}."
      },
      "setApprovalForAll(address,bool)": {
        "details": "See {IERC721-setApprovalForAll}."
      },
      "supportsInterface(bytes4)": {
        "details": "See {IERC165-supportsInterface}."
      },
      "symbol()": {
        "details": "See {IERC721Metadata-symbol}."
      },
      "tokenURI(uint256)": {
        "details": "See {IERC721Metadata-tokenURI}."
      },
      "transferFrom(address,address,uint256)": {
        "details": "See {IERC721-transferFrom}."
      },
      "transferOwnership(address)": {
        "details": "Transfers ownership of the contract to a new account (`newOwner`). Can only be called by the current owner."
      }
    },
    "version": 1
  },
  "userdoc": {
    "kind": "user",
    "methods": {},
    "version": 1
  },
  "storageLayout": {
    "storage": [
      {
        "astId": 178,
        "contract": "contracts/IMP.sol:IMP",
        "label": "_name",
        "offset": 0,
        "slot": "0",
        "type": "t_string_storage"
      },
      {
        "astId": 180,
        "contract": "contracts/IMP.sol:IMP",
        "label": "_symbol",
        "offset": 0,
        "slot": "1",
        "type": "t_string_storage"
      },
      {
        "astId": 184,
        "contract": "contracts/IMP.sol:IMP",
        "label": "_owners",
        "offset": 0,
        "slot": "2",
        "type": "t_mapping(t_uint256,t_address)"
      },
      {
        "astId": 188,
        "contract": "contracts/IMP.sol:IMP",
        "label": "_balances",
        "offset": 0,
        "slot": "3",
        "type": "t_mapping(t_address,t_uint256)"
      },
      {
        "astId": 192,
        "contract": "contracts/IMP.sol:IMP",
        "label": "_tokenApprovals",
        "offset": 0,
        "slot": "4",
        "type": "t_mapping(t_uint256,t_address)"
      },
      {
        "astId": 198,
        "contract": "contracts/IMP.sol:IMP",
        "label": "_operatorApprovals",
        "offset": 0,
        "slot": "5",
        "type": "t_mapping(t_address,t_mapping(t_address,t_bool))"
      },
      {
        "astId": 7,
        "contract": "contracts/IMP.sol:IMP",
        "label": "_owner",
        "offset": 0,
        "slot": "6",
        "type": "t_address"
      },
      {
        "astId": 123,
        "contract": "contracts/IMP.sol:IMP",
        "label": "_status",
        "offset": 0,
        "slot": "7",
        "type": "t_uint256"
      },
      {
        "astId": 2357,
        "contract": "contracts/IMP.sol:IMP",
        "label": "baseURI",
        "offset": 0,
        "slot": "8",
        "type": "t_string_storage"
      },
      {
        "astId": 2360,
        "contract": "contracts/IMP.sol:IMP",
        "label": "baseUriSuffix",
        "offset": 0,
        "slot": "9",
        "type": "t_string_storage"
      },
      {
        "astId": 2393,
        "contract": "contracts/IMP.sol:IMP",
        "label": "totalSupply",
        "offset": 0,
        "slot": "10",
        "type": "t_struct(Counter)1503_storage"
      },
      {
        "astId": 2395,
        "contract": "contracts/IMP.sol:IMP",
        "label": "foundersAmountMinted",
        "offset": 0,
        "slot": "11",
        "type": "t_uint256"
      },
      {
        "astId": 2397,
        "contract": "contracts/IMP.sol:IMP",
        "label": "wlSaleStartTime",
        "offset": 0,
        "slot": "12",
        "type": "t_uint256"
      },
      {
        "astId": 2399,
        "contract": "contracts/IMP.sol:IMP",
        "label": "wlSaleEndTime",
        "offset": 0,
        "slot": "13",
        "type": "t_uint256"
      },
      {
        "astId": 2403,
        "contract": "contracts/IMP.sol:IMP",
        "label": "whitelistClaimed",
        "offset": 0,
        "slot": "14",
        "type": "t_mapping(t_address,t_uint256)"
      },
      {
        "astId": 2405,
        "contract": "contracts/IMP.sol:IMP",
        "label": "merkleRoot",
        "offset": 0,
        "slot": "15",
        "type": "t_bytes32"
      },
      {
        "astId": 2407,
        "contract": "contracts/IMP.sol:IMP",
        "label": "preSaleAmountMinted",
        "offset": 0,
        "slot": "16",
        "type": "t_uint256"
      },
      {
        "astId": 2409,
        "contract": "contracts/IMP.sol:IMP",
        "label": "freeSaleStartTime",
        "offset": 0,
        "slot": "17",
        "type": "t_uint256"
      },
      {
        "astId": 2411,
        "contract": "contracts/IMP.sol:IMP",
        "label": "freeSaleEndTime",
        "offset": 0,
        "slot": "18",
        "type": "t_uint256"
      },
      {
        "astId": 2413,
        "contract": "contracts/IMP.sol:IMP",
        "label": "freeSaleAmountMinted",
        "offset": 0,
        "slot": "19",
        "type": "t_uint256"
      },
      {
        "astId": 2417,
        "contract": "contracts/IMP.sol:IMP",
        "label": "freeSaleClaimed",
        "offset": 0,
        "slot": "20",
        "type": "t_mapping(t_address,t_uint256)"
      },
      {
        "astId": 2422,
        "contract": "contracts/IMP.sol:IMP",
        "label": "cashierSaleStartTime",
        "offset": 0,
        "slot": "21",
        "type": "t_uint256"
      },
      {
        "astId": 2424,
        "contract": "contracts/IMP.sol:IMP",
        "label": "cashierSaleEndTime",
        "offset": 0,
        "slot": "22",
        "type": "t_uint256"
      },
      {
        "astId": 2426,
        "contract": "contracts/IMP.sol:IMP",
        "label": "cashierSaleAmountMinted",
        "offset": 0,
        "slot": "23",
        "type": "t_uint256"
      },
      {
        "astId": 2430,
        "contract": "contracts/IMP.sol:IMP",
        "label": "cashierSaleClaimed",
        "offset": 0,
        "slot": "24",
        "type": "t_mapping(t_address,t_uint256)"
      },
      {
        "astId": 2433,
        "contract": "contracts/IMP.sol:IMP",
        "label": "cashierSaleStartPrice",
        "offset": 0,
        "slot": "25",
        "type": "t_uint256"
      },
      {
        "astId": 2438,
        "contract": "contracts/IMP.sol:IMP",
        "label": "vipServiceSaleStartTime",
        "offset": 0,
        "slot": "26",
        "type": "t_uint256"
      },
      {
        "astId": 2440,
        "contract": "contracts/IMP.sol:IMP",
        "label": "vipServiceSaleAmountMinted",
        "offset": 0,
        "slot": "27",
        "type": "t_uint256"
      },
      {
        "astId": 2443,
        "contract": "contracts/IMP.sol:IMP",
        "label": "vipServiceSaleStartPrice",
        "offset": 0,
        "slot": "28",
        "type": "t_uint256"
      }
    ],
    "types": {
      "t_address": {
        "encoding": "inplace",
        "label": "address",
        "numberOfBytes": "20"
      },
      "t_bool": {
        "encoding": "inplace",
        "label": "bool",
        "numberOfBytes": "1"
      },
      "t_bytes32": {
        "encoding": "inplace",
        "label": "bytes32",
        "numberOfBytes": "32"
      },
      "t_mapping(t_address,t_bool)": {
        "encoding": "mapping",
        "key": "t_address",
        "label": "mapping(address => bool)",
        "numberOfBytes": "32",
        "value": "t_bool"
      },
      "t_mapping(t_address,t_mapping(t_address,t_bool))": {
        "encoding": "mapping",
        "key": "t_address",
        "label": "mapping(address => mapping(address => bool))",
        "numberOfBytes": "32",
        "value": "t_mapping(t_address,t_bool)"
      },
      "t_mapping(t_address,t_uint256)": {
        "encoding": "mapping",
        "key": "t_address",
        "label": "mapping(address => uint256)",
        "numberOfBytes": "32",
        "value": "t_uint256"
      },
      "t_mapping(t_uint256,t_address)": {
        "encoding": "mapping",
        "key": "t_uint256",
        "label": "mapping(uint256 => address)",
        "numberOfBytes": "32",
        "value": "t_address"
      },
      "t_string_storage": {
        "encoding": "bytes",
        "label": "string",
        "numberOfBytes": "32"
      },
      "t_struct(Counter)1503_storage": {
        "encoding": "inplace",
        "label": "struct Counters.Counter",
        "members": [
          {
            "astId": 1502,
            "contract": "contracts/IMP.sol:IMP",
            "label": "_value",
            "offset": 0,
            "slot": "0",
            "type": "t_uint256"
          }
        ],
        "numberOfBytes": "32"
      },
      "t_uint256": {
        "encoding": "inplace",
        "label": "uint256",
        "numberOfBytes": "32"
      }
    }
  }
}